{"contracts/AuditLog.sol":{"ParkingAuditLog":{"abi":[{"inputs":[],"stateMutability":"nonpayable","type":"constructor"},{"anonymous":false,"inputs":[{"indexed":true,"internalType":"string","name":"sessionId","type":"string"},{"indexed":false,"internalType":"string","name":"dataHash","type":"string"},{"indexed":false,"internalType":"string","name":"action","type":"string"},{"indexed":false,"internalType":"uint256","name":"timestamp","type":"uint256"}],"name":"AuditRegistrado","type":"event"},{"inputs":[],"name":"owner","outputs":[{"internalType":"address","name":"","type":"address"}],"stateMutability":"view","type":"function"},{"inputs":[{"internalType":"string","name":"sessionId","type":"string"},{"internalType":"string","name":"dataHash","type":"string"},{"internalType":"string","name":"action","type":"string"}],"name":"registrar","outputs":[],"stateMutability":"nonpayable","type":"function"}],"evm":{"bytecode":{"linkReferences":{},"object":"608060405234801561001057600080fd5b50336000806101000a81548173ffffffffffffffffffffffffffffffffffffffff021916908373ffffffffffffffffffffffffffffffffffffffff1602179055506104b0806100606000396000f3fe608060405234801561001057600080fd5b50600436106100365760003560e01c8063481fceca1461003b5780638da5cb5b14610057575b600080fd5b610055600480360381019061005091906101f5565b610075565b005b61005f610162565b60405161006c91906102ea565b60405180910390f35b60008054906101000a900473ffffffffffffffffffffffffffffffffffffffff1673ffffffffffffffffffffffffffffffffffffffff163373ffffffffffffffffffffffffffffffffffffffff1614610103576040517f08c379a00000000000000000000000000000000000000000000000000000000081526004016100fa90610362565b60405180910390fd5b85856040516101139291906103c1565b60405180910390207f94f95b86df11bc9370f905f61eb56bf9fea3ff32a1deaa7f0a8fcdc274b5e7cd8585858542604051610152959493929190610431565b60405180910390a2505050505050565b60008054906101000a900473ffffffffffffffffffffffffffffffffffffffff1681565b600080fd5b600080fd5b600080fd5b600080fd5b600080fd5b60008083601f8401126101b5576101b4610190565b5b8235905067ffffffffffffffff8111156101d2576101d1610195565b5b6020830191508360018202830111156101ee576101ed61019a565b5b9250929050565b6000806000806000806060878903121561021257610211610186565b5b600087013567ffffffffffffffff8111156102305761022f61018b565b5b61023c89828a0161019f565b9650965050602087013567ffffffffffffffff81111561025f5761025e61018b565b5b61026b89828a0161019f565b9450945050604087013567ffffffffffffffff81111561028e5761028d61018b565b5b61029a89828a0161019f565b92509250509295509295509295565b600073ffffffffffffffffffffffffffffffffffffffff82169050919050565b60006102d4826102a9565b9050919050565b6102e4816102c9565b82525050565b60006020820190506102ff60008301846102db565b92915050565b600082825260208201905092915050565b7f4e6f206175746f72697a61646f00000000000000000000000000000000000000600082015250565b600061034c600d83610305565b915061035782610316565b602082019050919050565b6000602082019050818103600083015261037b8161033f565b9050919050565b600081905092915050565b82818337600083830152505050565b60006103a88385610382565b93506103b583858461038d565b82840190509392505050565b60006103ce82848661039c565b91508190509392505050565b6000601f19601f8301169050919050565b60006103f78385610305565b935061040483858461038d565b61040d836103da565b840190509392505050565b6000819050919050565b61042b81610418565b82525050565b6000606082019050818103600083015261044c8187896103eb565b905081810360208301526104618185876103eb565b90506104706040830184610422565b969550505050505056fea2646970667358221220fde79843ee310e81cf7ceb9570eeb9695efd457af9f435cb4f3acd0551b6199364736f6c63430008140033","opcodes":"PUSH1 0x80 PUSH1 0x40 MSTORE CALLVALUE DUP1 ISZERO PUSH2 0x10 JUMPI PUSH1 0x0 DUP1 REVERT JUMPDEST POP CALLER PUSH1 0x0 DUP1 PUSH2 0x100 EXP DUP2 SLOAD DUP2 PUSH20 0xFFFFFFFFFFFFFFFFFFFFFFFFFFFFFFFFFFFFFFFF MUL NOT AND SWAP1 DUP4 PUSH20 0xFFFFFFFFFFFFFFFFFFFFFFFFFFFFFFFFFFFFFFFF AND MUL OR SWAP1 SSTORE POP PUSH2 0x4B0 DUP1 PUSH2 0x60 PUSH1 0x0 CODECOPY PUSH1 0x0 RETURN INVALID PUSH1 0x80 PUSH1 0x40 MSTORE CALLVALUE DUP1 ISZERO PUSH2 0x10 JUMPI PUSH1 0x0 DUP1 REVERT JUMPDEST POP PUSH1 0x4 CALLDATASIZE LT PUSH2 0x36 JUMPI PUSH1 0x0 CALLDATALOAD PUSH1 0xE0 SHR DUP1 PUSH4 0x481FCECA EQ PUSH2 0x3B JUMPI DUP1 PUSH4 0x8DA5CB5B EQ PUSH2 0x57 JUMPI JUMPDEST PUSH1 0x0 DUP1 REVERT JUMPDEST PUSH2 0x55 PUSH1 0x4 DUP1 CALLDATASIZE SUB DUP2 ADD SWAP1 PUSH2 0x50 SWAP2 SWAP1 PUSH2 0x1F5 JUMP JUMPDEST PUSH2 0x75 JUMP JUMPDEST STOP JUMPDEST PUSH2 0x5F PUSH2 0x162 JUMP JUMPDEST PUSH1 0x40 MLOAD PUSH2 0x6C SWAP2 SWAP1 PUSH2 0x2EA JUMP JUMPDEST PUSH1 0x40 MLOAD DUP1 SWAP2 SUB SWAP1 RETURN JUMPDEST PUSH1 0x0 DUP1 SLOAD SWAP1 PUSH2 0x100 EXP SWAP1 DIV PUSH20 0xFFFFFFFFFFFFFFFFFFFFFFFFFFFFFFFFFFFFFFFF AND PUSH20 0xFFFFFFFFFFFFFFFFFFFFFFFFFFFFFFFFFFFFFFFF AND CALLER PUSH20 0xFFFFFFFFFFFFFFFFFFFFFFFFFFFFFFFFFFFFFFFF AND EQ PUSH2 0x103 JUMPI PUSH1 0x40 MLOAD PUSH32 0x8C379A000000000000000000000000000000000000000000000000000000000 DUP2 MSTORE PUSH1 0x4 ADD PUSH2 0xFA SWAP1 PUSH2 0x362 JUMP JUMPDEST PUSH1 0x40 MLOAD DUP1 SWAP2 SUB SWAP1 REVERT JUMPDEST DUP6 DUP6 PUSH1 0x40 MLOAD PUSH2 0x113 SWAP3 SWAP2 SWAP1 PUSH2 0x3C1 JUMP JUMPDEST PUSH1 0x40 MLOAD DUP1 SWAP2 SUB SWAP1 KECCAK256 PUSH32 0x94F95B86DF11BC9370F905F61EB56BF9FEA3FF32A1DEAA7F0A8FCDC274B5E7CD DUP6 DUP6 DUP6 DUP6 TIMESTAMP PUSH1 0x40 MLOAD PUSH2 0x152 SWAP6 SWAP5 SWAP4 SWAP3 SWAP2 SWAP1 PUSH2 0x431 JUMP JUMPDEST PUSH1 0x40 MLOAD DUP1 SWAP2 SUB SWAP1 LOG2 POP POP POP POP POP POP JUMP JUMPDEST PUSH1 0x0 DUP1 SLOAD SWAP1 PUSH2 0x100 EXP SWAP1 DIV PUSH20 0xFFFFFFFFFFFFFFFFFFFFFFFFFFFFFFFFFFFFFFFF AND DUP2 JUMP JUMPDEST PUSH1 0x0 DUP1 REVERT JUMPDEST PUSH1 0x0 DUP1 REVERT JUMPDEST PUSH1 0x0 DUP1 REVERT JUMPDEST PUSH1 0x0 DUP1 REVERT JUMPDEST PUSH1 0x0 DUP1 REVERT JUMPDEST PUSH1 0x0 DUP1 DUP4 PUSH1 0x1F DUP5 ADD SLT PUSH2 0x1B5 JUMPI PUSH2 0x1B4 PUSH2 0x190 JUMP JUMPDEST JUMPDEST DUP3 CALLDATALOAD SWAP1 POP PUSH8 0xFFFFFFFFFFFFFFFF DUP2 GT ISZERO PUSH2 0x1D2 JUMPI PUSH2 0x1D1 PUSH2 0x195 JUMP JUMPDEST JUMPDEST PUSH1 0x20 DUP4 ADD SWAP2 POP DUP4 PUSH1 0x1 DUP3 MUL DUP4 ADD GT ISZERO PUSH2 0x1EE JUMPI PUSH2 0x1ED PUSH2 0x19A JUMP JUMPDEST JUMPDEST SWAP3 POP SWAP3 SWAP1 POP JUMP JUMPDEST PUSH1 0x0 DUP1 PUSH1 0x0 DUP1 PUSH1 0x0 DUP1 PUSH1 0x60 DUP8 DUP10 SUB SLT ISZERO PUSH2 0x212 JUMPI PUSH2 0x211 PUSH2 0x186 JUMP JUMPDEST JUMPDEST PUSH1 0x0 DUP8 ADD CALLDATALOAD PUSH8 0xFFFFFFFFFFFFFFFF DUP2 GT ISZERO PUSH2 0x230 JUMPI PUSH2 0x22F PUSH2 0x18B JUMP JUMPDEST JUMPDEST PUSH2 0x23C DUP10 DUP3 DUP11 ADD PUSH2 0x19F JUMP JUMPDEST SWAP7 POP SWAP7 POP POP PUSH1 0x20 DUP8 ADD CALLDATALOAD PUSH8 0xFFFFFFFFFFFFFFFF DUP2 GT ISZERO PUSH2 0x25F JUMPI PUSH2 0x25E PUSH2 0x18B JUMP JUMPDEST JUMPDEST PUSH2 0x26B DUP10 DUP3 DUP11 ADD PUSH2 0x19F JUMP JUMPDEST SWAP5 POP SWAP5 POP POP PUSH1 0x40 DUP8 ADD CALLDATALOAD PUSH8 0xFFFFFFFFFFFFFFFF DUP2 GT ISZERO PUSH2 0x28E JUMPI PUSH2 0x28D PUSH2 0x18B JUMP JUMPDEST JUMPDEST PUSH2 0x29A DUP10 DUP3 DUP11 ADD PUSH2 0x19F JUMP JUMPDEST SWAP3 POP SWAP3 POP POP SWAP3 SWAP6 POP SWAP3 SWAP6 POP SWAP3 SWAP6 JUMP JUMPDEST PUSH1 0x0 PUSH20 0xFFFFFFFFFFFFFFFFFFFFFFFFFFFFFFFFFFFFFFFF DUP3 AND SWAP1 POP SWAP2 SWAP1 POP JUMP JUMPDEST PUSH1 0x0 PUSH2 0x2D4 DUP3 PUSH2 0x2A9 JUMP JUMPDEST SWAP1 POP SWAP2 SWAP1 POP JUMP JUMPDEST PUSH2 0x2E4 DUP2 PUSH2 0x2C9 JUMP JUMPDEST DUP3 MSTORE POP POP JUMP JUMPDEST PUSH1 0x0 PUSH1 0x20 DUP3 ADD SWAP1 POP PUSH2 0x2FF PUSH1 0x0 DUP4 ADD DUP5 PUSH2 0x2DB JUMP JUMPDEST SWAP3 SWAP2 POP POP JUMP JUMPDEST PUSH1 0x0 DUP3 DUP3 MSTORE PUSH1 0x20 DUP3 ADD SWAP1 POP SWAP3 SWAP2 POP POP JUMP JUMPDEST PUSH32 0x4E6F206175746F72697A61646F00000000000000000000000000000000000000 PUSH1 0x0 DUP3 ADD MSTORE POP JUMP JUMPDEST PUSH1 0x0 PUSH2 0x34C PUSH1 0xD DUP4 PUSH2 0x305 JUMP JUMPDEST SWAP2 POP PUSH2 0x357 DUP3 PUSH2 0x316 JUMP JUMPDEST PUSH1 0x20 DUP3 ADD SWAP1 POP SWAP2 SWAP1 POP JUMP JUMPDEST PUSH1 0x0 PUSH1 0x20 DUP3 ADD SWAP1 POP DUP2 DUP2 SUB PUSH1 0x0 DUP4 ADD MSTORE PUSH2 0x37B DUP2 PUSH2 0x33F JUMP JUMPDEST SWAP1 POP SWAP2 SWAP1 POP JUMP JUMPDEST PUSH1 0x0 DUP2 SWAP1 POP SWAP3 SWAP2 POP POP JUMP JUMPDEST DUP3 DUP2 DUP4 CALLDATACOPY PUSH1 0x0 DUP4 DUP4 ADD MSTORE POP POP POP JUMP JUMPDEST PUSH1 0x0 PUSH2 0x3A8 DUP4 DUP6 PUSH2 0x382 JUMP JUMPDEST SWAP4 POP PUSH2 0x3B5 DUP4 DUP6 DUP5 PUSH2 0x38D JUMP JUMPDEST DUP3 DUP5 ADD SWAP1 POP SWAP4 SWAP3 POP POP POP JUMP JUMPDEST PUSH1 0x0 PUSH2 0x3CE DUP3 DUP5 DUP7 PUSH2 0x39C JUMP JUMPDEST SWAP2 POP DUP2 SWAP1 POP SWAP4 SWAP3 POP POP POP JUMP JUMPDEST PUSH1 0x0 PUSH1 0x1F NOT PUSH1 0x1F DUP4 ADD AND SWAP1 POP SWAP2 SWAP1 POP JUMP JUMPDEST PUSH1 0x0 PUSH2 0x3F7 DUP4 DUP6 PUSH2 0x305 JUMP JUMPDEST SWAP4 POP PUSH2 0x404 DUP4 DUP6 DUP5 PUSH2 0x38D JUMP JUMPDEST PUSH2 0x40D DUP4 PUSH2 0x3DA JUMP JUMPDEST DUP5 ADD SWAP1 POP SWAP4 SWAP3 POP POP POP JUMP JUMPDEST PUSH1 0x0 DUP2 SWAP1 POP SWAP2 SWAP1 POP JUMP JUMPDEST PUSH2 0x42B DUP2 PUSH2 0x418 JUMP JUMPDEST DUP3 MSTORE POP POP JUMP JUMPDEST PUSH1 0x0 PUSH1 0x60 DUP3 ADD SWAP1 POP DUP2 DUP2 SUB PUSH1 0x0 DUP4 ADD MSTORE PUSH2 0x44C DUP2 DUP8 DUP10 PUSH2 0x3EB JUMP JUMPDEST SWAP1 POP DUP2 DUP2 SUB PUSH1 0x20 DUP4 ADD MSTORE PUSH2 0x461 DUP2 DUP6 DUP8 PUSH2 0x3EB JUMP JUMPDEST SWAP1 POP PUSH2 0x470 PUSH1 0x40 DUP4 ADD DUP5 PUSH2 0x422 JUMP JUMPDEST SWAP7 SWAP6 POP POP POP POP POP POP JUMP INVALID LOG2 PUSH5 0x6970667358 0x22 SLT KECCAK256 REVERT 0xE7 SWAP9 NUMBER 0xEE BALANCE 0xE DUP2 0xCF PUSH29 0xEB9570EEB9695EFD457AF9F435CB4F3ACD0551B6199364736F6C634300 ADDMOD EQ STOP CALLER "},"methodIdentifiers":{"owner()":"8da5cb5b","registrar(string,string,string)":"481fceca"}}}}}