{
  "_format": "hh-sol-artifact-1",
  "contractName": "ParkingAuditLog",
  "sourceName": "contracts/AuditLog.sol",
  "abi": [
    {
      "inputs": [],
      "stateMutability": "nonpayable",
      "type": "constructor"
    },
    {
      "anonymous": false,
      "inputs": [
        {
          "indexed": true,
          "internalType": "string",
          "name": "sessionId",
          "type": "string"
        },
        {
          "indexed": false,
          "internalType": "string",
          "name": "dataHash",
          "type": "string"
        },
        {
          "indexed": false,
          "internalType": "string",
          "name": "action",
          "type": "string"
        },
        {
          "indexed": false,
          "internalType": "uint256",
          "name": "timestamp",
          "type": "uint256"
        }
      ],
      "name": "AuditRegistrado",
      "type": "event"
    },
    {
      "inputs": [],
      "name": "owner",
      "outputs": [
        {
          "internalType": "address",
          "name": "",
          "type": "address"
        }
      ],
      "stateMutability": "view",
      "type": "function"
    },
    {
      "inputs": [
        {
          "internalType": "string",
          "name": "sessionId",
          "type": "string"
        },
        {
          "internalType": "string",
          "name": "dataHash",
          "type": "string"
        },
        {
          "internalType": "string",
          "name": "action",
          "type": "string"
        }
      ],
      "name": "registrar",
      "outputs": [],
      "stateMutability": "nonpayable",
      "type": "function"
    }
  ],
  "bytecode": "0x608060405234801561001057600080fd5b50336000806101000a81548173ffffffffffffffffffffffffffffffffffffffff021916908373ffffffffffffffffffffffffffffffffffffffff1602179055506104b0806100606000396000f3fe608060405234801561001057600080fd5b50600436106100365760003560e01c8063481fceca1461003b5780638da5cb5b14610057575b600080fd5b610055600480360381019061005091906101f5565b610075565b005b61005f610162565b60405161006c91906102ea565b60405180910390f35b60008054906101000a900473ffffffffffffffffffffffffffffffffffffffff1673ffffffffffffffffffffffffffffffffffffffff163373ffffffffffffffffffffffffffffffffffffffff1614610103576040517f08c379a00000000000000000000000000000000000000000000000000000000081526004016100fa90610362565b60405180910390fd5b85856040516101139291906103c1565b60405180910390207f94f95b86df11bc9370f905f61eb56bf9fea3ff32a1deaa7f0a8fcdc274b5e7cd8585858542604051610152959493929190610431565b60405180910390a2505050505050565b60008054906101000a900473ffffffffffffffffffffffffffffffffffffffff1681565b600080fd5b600080fd5b600080fd5b600080fd5b600080fd5b60008083601f8401126101b5576101b4610190565b5b8235905067ffffffffffffffff8111156101d2576101d1610195565b5b6020830191508360018202830111156101ee576101ed61019a565b5b9250929050565b6000806000806000806060878903121561021257610211610186565b5b600087013567ffffffffffffffff8111156102305761022f61018b565b5b61023c89828a0161019f565b9650965050602087013567ffffffffffffffff81111561025f5761025e61018b565b5b61026b89828a0161019f565b9450945050604087013567ffffffffffffffff81111561028e5761028d61018b565b5b61029a89828a0161019f565b92509250509295509295509295565b600073ffffffffffffffffffffffffffffffffffffffff82169050919050565b60006102d4826102a9565b9050919050565b6102e4816102c9565b82525050565b60006020820190506102ff60008301846102db565b92915050565b600082825260208201905092915050565b7f4e6f206175746f72697a61646f00000000000000000000000000000000000000600082015250565b600061034c600d83610305565b915061035782610316565b602082019050919050565b6000602082019050818103600083015261037b8161033f565b9050919050565b600081905092915050565b82818337600083830152505050565b60006103a88385610382565b93506103b583858461038d565b82840190509392505050565b60006103ce82848661039c565b91508190509392505050565b6000601f19601f8301169050919050565b60006103f78385610305565b935061040483858461038d565b61040d836103da565b840190509392505050565b6000819050919050565b61042b81610418565b82525050565b6000606082019050818103600083015261044c8187896103eb565b905081810360208301526104618185876103eb565b90506104706040830184610422565b969550505050505056fea2646970667358221220fde79843ee310e81cf7ceb9570eeb9695efd457af9f435cb4f3acd0551b6199364736f6c63430008140033",
  "linkReferences": {},
  "deployedLinkReferences": {}
}